:020000020000FC
:10000000B6C018950EC0189518951895189518959E
:10001000189514C018951895189518951895189551
:1000200018950F9300E002BF03E206BF01E003BF93
:1000300002E009BF9098CF9A0F9118950F930FB7D0
:100040000F931F932F9319B3137000E003BFCF9347
:10005000DF9309B303702227102710FF2160D1E03E
:10006000CCE219B313700000012700FF22600000EA
:10007000000009B30370D9F1102710FF2460C933C1
:10008000C0F519B3137099F1012700FF2860000033
:10009000000009B3037059F1102710FF2061000020
:1000A000000019B3137019F1012700FF206200004E
:1000B000000009B30370D9F0102710FF206400007E
:1000C000000019B3137099F0012700FF20682993ED
:1000D00009B3037061F01027222710FF2160000090
:1000E00019B3137021F0012700FF2260C2CF2993BA
:1000F0004DD018950F931F932F933F93072D1BB34C
:100100001B7F222723952F3060F41BBB1B7F00FD34
:1001100014600695006835E0339500003D3FE0F33C
:10012000F1CF3F912F911F910F9108957F920F93DF
:10013000BF93CF93CCE3D1E000270031039510F4B7
:100140007A90FBCFCF91BF910F917F9008950F933D
:100150001F932F930027112720EC0395F1F7139598
:10016000E1F72395D1F72F911F910F9108950FE794
:100170000DBF00E00EBF919A00E10BBF0CE00ABB7F
:10018000D79A7894000000000000FCCF0F9300275E
:1001900007E400932C01CADFCF9A909A0F9108953B
:1001A000000000000000000000000000000000004F
:1001B000000000000000000000000000000000003F
:1001C000000000000000000000000000000000002F
:0201D00000002D
:00000001FF
