:020000020000FC
:10000000ECC31895CCC118951895189518951895A6
:100010001895D3C118951895189518951895189591
:1000200018950F931F932F933F93072D1BB31B7F9F
:10003000222723952F3060F41BBB1B7F00FD14602B
:100040000695006835E0339500003D3FE0F3F1CFC1
:100050003F912F911F910F9108957F920F93CF930E
:10006000DF93CCE3D1E000270031039518F47A90B8
:10007000D8DFFACFDF91CF910F917F9008957F92D3
:100080000F93CF93DF93C1E6D1E0002700310395B2
:1000900018F47A90C6DFFACFDF91CF910F917F905D
:1000A00008950F931F932F930027112720EC03959A
:1000B000F1F71395E1F72395D1F72F911F910F9148
:1000C00008950F9300912C010F70009319010031D6
:1000D00020F00E70083028F006C00E70083010F0C6
:1000E00003C003C002C001C000C00F9108951BB33C
:1000F000909811601D7F0AB303601BBB0ABBC091BF
:100100001B01D0911A01000033E013271BBB49915A
:100110004A95099100E813271BBB4A95000000008F
:100120004A95E1F103FF13271BBB0000000000000C
:100130004A95A1F104FF13271BBB0000000000003B
:100140004A9561F105FF13271BBB0000000000006A
:100150004A9521F106FF13271BBB00000000000099
:100160004A95E1F007FF13271BBB000009914A9550
:10017000A9F000FF13271BBB0000000000004A95F8
:1001800069F001FF13271BBB0000000000004A9527
:1001900029F002FF13271BBB0000C2CF1C7F1BBB33
:1001A0000CEF0395F1F70AB30C7F12601BBB3DEF18
:1001B0003395F1F70ABB909A08950F9318D06FD03A
:1001C0002ED0A3D006D000911001009353010F91BF
:1001D00008950F931F930091100118E801270093D1
:1001E00010011F910F91089535D08FD008950F936E
:1001F0001F93AF93BF93CF93DF93AEE1B1E0C5E41C
:10020000D1E000270930039518F419911D93FACF16
:10021000DF91CF91BF91AF911F910F9108950F93EF
:100220001F93AF93BF93A5E4B1E00C9110E1100FC1
:100230001D93069506950695A00F08F4B3950091B9
:1002400029010D9300912A010C93BF91AF911F9149
:100250000F9108950F931F932F933F934F935F93A5
:1002600000912701109128012FE145E050912601CE
:10027000302F317032953227220F34FD2427169506
:1002800007955A95A9F70FE120272F71209329018F
:100290005F914F913F912F911F910F910895FF9280
:1002A0000F931F932F933F934F935F936F93AF934E
:1002B000BF932FEF1FEF40EA31E0B1E0AEE15D9177
:1002C000503089F00D9168E0FF240695FF1CF1265F
:1002D00026951795F0FC2427F0FC13275A9519F062
:1002E0006A9591F7EFCFB1E0A9E20FEF2027102731
:1002F0001D932C93BF91AF916F915F914F913F915F
:100300002F911F910F91FF9008950F931F932F939B
:100310003F934F935F936F93AF93BF93CF93DF93CD
:10032000A5E4B1E0C2E5D1E000E8099309912D917F
:1003300049E0552766270D9138E04A9511F448E0C9
:100340001993169500FD106800FD539500FF552781
:10035000563038F0552763954A9511F448E01993C3
:1003600016952A9521F006953A9539F7E4CF4A95E6
:1003700011F01695FCCF188320E1620F2091450102
:10038000260F20935101DF91CF91BF91AF916F91D3
:100390005F914F913F912F911F910F9108950F936E
:1003A00000E002BF0DE106BF01E003BF02E009BFAC
:1003B000909800E10ABF0F9118950F930FB70F9314
:1003C0001F9319B3137000E003BF2F93CF9309B3AA
:1003D00003702227102710FF2160DF9319B31370D9
:1003E0000000012700FF2260D1E0CCE209B30370D6
:1003F000E1F1102710FF2460C933B0F519B3137071
:10040000A1F1012700FF28600000000009B303707C
:1004100061F1102710FF20610000000019B3137074
:1004200021F1012700FF20620000000009B30370E2
:10043000E1F0102710FF20640000000019B31370D2
:10044000A1F0012700FF2068299309B3037069F028
:100450001027222710FF2160000019B3137029F024
:10046000012700FF2260C2CFB8C129930091180173
:100470000130C0F400912C010936A1F40F933F9391
:100480004F9301E000931A0101E100931B012FDE5D
:1004900001E000931A0101E500931B014F913F9188
:1004A0000F9103C001E00093140101E000931401D7
:1004B000DF91CF912F911F910F910FBF0F91909AC4
:1004C00018952F9322E02EBD22272DBD2CBD2EE0A6
:1004D00020930D0126EA20930E012F9108951F937A
:1004E0002F933F934F932CB52DB530910D012317CA
:1004F00090F016B3469512FD406820910E0134EC41
:10050000230F20930E0120910D0108F4239539E06B
:10051000230F20930D0120910D01283508F4E3CF1E
:1005200040930F012CB52DB52536E0F34F913F9147
:100530002F911F9108952F933F9320910F013CE13C
:10054000203161F038E0203249F037EF203331F0CC
:100550003DEE2A3318F033EC2B3500F0230F2093B7
:100560000F013F912F9108950F931F932F9301E057
:100570000093180100270093140100911401013029
:10058000E0F300270093180110912C01133C29F08F
:100590001B3419F01936E1F0EACF1F9302ED0093F6
:1005A000530100E100935101A2DD1F9100912E0142
:1005B00010931001053039F0063039F0093019F088
:1005C0000A3009F0D4CF08D0D2CF45D0D0CFCFCF8A
:1005D0002F911F910F9108950F931F932F933F9386
:1005E000CF93DF9310912D0120912C0130912E019A
:1005F000C1E5D1E000E2099300E809930BE4099317
:1006000000270993099301E0009318010027009344
:100610001401009114010130E0F300270093180148
:1006200000912C01093671F0023D71F00B3459F73D
:100630001F9302ED0093530100E10093510157DD38
:100640001F91D6CF54DDDFCFDF91CF913F912F9116
:100650001F910F9108950F932F933F93CF93DF93A3
:10066000EF93FF93009130013091310120913301DC
:10067000D0912D01C0912F01D13A51F4C13021F414
:1006800023E0EAEEF3E01AC022E0ECEEF3E016C05D
:10069000013031F4E1E9F3E0223108F022E10EC04B
:1006A000023019F4EAE9F3E009C0023239F43130DA
:1006B00019F0E8EBF3E002C0E3EDF3E0EE0FFF1F0B
:1006C000213038F1D1E0C6E43327383038F4213016
:1006D00028F02A95339505910993F7CF032F000F42
:1006E000000F000F0093450168DD01E00093180141
:1006F000002700931401009114010130E0F300275A
:100700000093180100912C01023D11F0F0DCEDCFB7
:10071000D7CFFF91EF91DF91CF913F912F910F9123
:10072000089512011001000000082C1A2421100164
:100730000000000109023B00020100A03109040091
:100740000001030101000921100100012236000708
:1007500005810308000A09040100010300000009E3
:1007600021010100012232000705820308000A006E
:1007700005010906A1010508190129031500250134
:1007800075019503910295059101050719E029E787
:10079000950881027508950181011900299126FFAC
:1007A0000095068100C0050C09011A01850102159A
:1007B0000026C302950175108100C005010980A1C2
:1007C000018502198129832501750195038102950F
:1007D000058101C001000000020000E00DBF01E042
:1007E0000EBF909A00E10BBF04E00ABB0BBB01E017
:1007F00000931A0101E500931B0100E10093110130
:1008000000E8009312010AE5009313010BE4009342
:100810001001D79ADF9AC29A7894C5E4D1E0A4DE99
:10082000222720930F017FD001E0009318010027B9
:1008300000931401009114010130E0F300270093AC
:10084000180155DC01E00093180100270093140102
:10085000009114010130E0F300270093180147DCF8
:1008600016B31470E9F72DDE3ADE26E428E063DEE5
:1008700028E059D001E000931801002700931401EB
:10088000009114010130E0F30027009318012FDCE0
:10089000222720930F0147D001E000931801002781
:1008A00000931401009114010130E0F3002700933C
:1008B00018011DDCD5CF00E000930F0134D001E01A
:1008C00000931801002700931401009114010130D6
:1008D000E0F30027009318010ADC04E000930F0105
:1008E00022D001E000931801002700931401009129
:1008F00014010130E0F3002700931801F8DBD1DB8D
:10090000DACFF894CF9ACDDBFCCF0F931F93002D55
:100910000F7010E3010F0A3310F017E0010F002EE3
:100920001F910F9108952F933F93CF93DF93C5E4C9
:10093000D1E020E4299322273327373040F42227BF
:10094000323011F420910F0129933395F6CF35DC25
:10095000DF91CF913F912F9108950000000000009A
:100960000000000000000000000000000000000087
:100970000000000000000000000000000000000077
:0C0980000000000000000000000000006B
:00000001FF
