:020000020000FC
:10000000D8C21895B2C118951895189518951895D5
:100010001895B9C1189518951895189518951895AB
:1000200018950F931F932F933F93072D1BB31B7F9F
:10003000222723952F3060F41BBB1B7F00FD14602B
:100040000695006835E0339500003D3FE0F3F1CFC1
:100050003F912F911F910F9108957F920F93CF930E
:10006000DF93CCE3D1E000270031039518F47A90B8
:10007000D8DFFACFDF91CF910F917F9008957F92D3
:100080000F93CF93DF93C2E6D1E0002700310395B1
:1000900018F47A90C6DFFACFDF91CF910F917F905D
:1000A00008950F931F932F930027112720EC03959A
:1000B000F1F71395E1F72395D1F72F911F910F9148
:1000C00008950F9300912C010F70009319010031D6
:1000D00020F00E70083028F006C00E70083010F0C6
:1000E00003C003C002C001C000C00F9108951BB33C
:1000F000909811601D7F0AB303601BBB0ABBC3E568
:10010000D1E0409151014A9533E013271BBB00E831
:10011000000000004A95D9F102FF13271BBB000025
:10012000000000004A9599F103FF13271BBB000054
:10013000000000004A9559F104FF13271BBB000083
:10014000000000004A9519F105FF13271BBB0000B2
:10015000000000004A95D9F006FF13271BBB0000E2
:10016000000000004A9599F007FF13271BBB000011
:1001700009914A9561F000FF13271BBB00000000A6
:1001800000004A9521F001FF13271BBBC2CF1C7F43
:100190001BBB0CEF0395F1F70AB30C7F12601BBB7E
:1001A0003DEF3395F1F70ABB909A089507D05ED0E2
:1001B0001DD092D0089535D08FD008950F931F93FE
:1001C000AF93BF93CF93DF93AEE1B1E0C5E4D1E04D
:1001D00000270930039518F419911D93FACFDF9188
:1001E000CF91BF91AF911F910F9108950F931F93DE
:1001F000AF93BF93A5E4B1E00C9110E1100F1D93F4
:10020000069506950695A00F08F4B395009129016F
:100210000D9300912A010C93BF91AF911F910F9103
:1002200008950F931F932F933F934F935F930091E4
:100230002701109128012FE145E050912601302F30
:10024000317032953227220F34FD242716950795F9
:100250005A95A9F70FE120272F71209329015F916B
:100260004F913F912F911F910F910895FF920F93FE
:100270001F932F933F934F935F936F93AF93BF93CE
:100280002FEF1FEF40EA31E0B1E0AEE15D91503079
:1002900089F00D9168E0FF240695FF1CF126269554
:1002A0001795F0FC2427F0FC13275A9519F06A954E
:1002B00091F7EFCFB1E0A9E20FEF202710271D93B0
:1002C0002C93BF91AF916F915F914F913F912F917F
:1002D0001F910F91FF9008950F932F933F934F938A
:1002E0005F936F93AF93BF93CF93DF93A5E4B1E098
:1002F000C2E5D1E000E8099309912D9149E0552725
:10030000662720E50D9138E04A9511F448E01993ED
:10031000169500FD106800FD539500FF55275630D7
:1003200038F0552763954A9511F448E019931695CE
:100330002A9521F006953A9539F7E4CF4A9511F0C0
:100340001695FCCF188320E1620F20914501260FFE
:1003500020935101DF91CF91BF91AF916F915F9148
:100360004F913F912F910F9108950F9300E002BF9D
:100370000DE106BF01E003BF02E009BF909800E174
:100380000ABF0F9118950F930FB70F931F9319B3CF
:10039000137000E003BF2F93CF9309B3037022279C
:1003A000102710FF2160DF9319B31370000001279D
:1003B00000FF2260D1E0CCE209B30370E1F1102725
:1003C00010FF2460C933B0F519B31370A1F10127F0
:1003D00000FF28600000000009B3037061F11027DE
:1003E00010FF20610000000019B3137021F10127F4
:1003F00000FF20620000000009B30370E1F0102745
:1004000010FF20640000000019B31370A1F0012751
:1004100000FF2068299309B3037069F01027222791
:1004200010FF2160000019B3137029F0012700FFAD
:100430002260C2CFD3C0299300911801013060F42B
:1004400000912C01093641F40AE50093530100E1C3
:10045000009351014CDE03C001E00093140101E060
:1004600000931401DF91CF912F911F910F910FBF36
:100470000F91909A18950F93009114010130E0F3B9
:10048000002700931401009114010130E0F30027CC
:100490000093140102ED0093530100E10093510118
:1004A00026DE0BD000912C0199C0003820F000917D
:1004B00014010130E0F30F9108950F932F933F93B0
:1004C000CF93DF93EF93FF9322E1EAE3F5E0D1E0EE
:1004D000C6E4213050F13327383040F4213030F079
:1004E0002A95339505910993732EF6CF022F000FAD
:1004F000000F000F0093450159DE009114010130F7
:10050000E0F300270093140100912C01093609F053
:1005100065C0EDDD009114010130E0F30027009388
:100520001401F8949ADD5AC0D4CFFF91EF91DF9176
:10053000CF913F912F910F91089512010200000079
:100540000008806DC88068030204000109022200CF
:10055000010100A0003209030000010301010000B5
:100560000705810300080A00092101010001223F5B
:10057000000005010609A101050719E029E715009A
:100580002501750195088102950175088101950580
:10059000750105081901290591029501750391015D
:1005A0009506750815002565050719002965810060
:1005B00000C000E00DBF01E00EBF909A00E10BBF4C
:1005C00004E00ABB0BBBD79A789409E6702E29DDAC
:1005D00044DD51DF000000000000FCCF62DDCF9A57
:1005E000FDCF00000000000000000000000000003F
:1005F00000000000000000000000000000000000FB
:1006000000000000000000000000000000000000EA
:0406100000000000E6
:00000001FF
