:020000020000FC
:100000009CC31895CCC118951895189518951895F6
:100010001895D3C118951895189518951895189591
:1000200018950F931F932F933F93072D1BB31B7F9F
:10003000222723952F3060F41BBB1B7F00FD14602B
:100040000695006835E0339500003D3FE0F3F1CFC1
:100050003F912F911F910F9108957F920F93CF930E
:10006000DF93CCE3D1E000270031039518F47A90B8
:10007000D8DFFACFDF91CF910F917F9008957F92D3
:100080000F93CF93DF93C1E6D1E0002700310395B2
:1000900018F47A90C6DFFACFDF91CF910F917F905D
:1000A00008950F931F932F930027112720EC03959A
:1000B000F1F71395E1F72395D1F72F911F910F9148
:1000C00008950F9300912C010F70009319010031D6
:1000D00020F00E70083028F006C00E70083010F0C6
:1000E00003C003C002C001C000C00F9108951BB33C
:1000F000909811601D7F0AB303601BBB0ABBC091BF
:100100001B01D0911A01000033E013271BBB49915A
:100110004A95099100E813271BBB4A95000000008F
:100120004A95E1F103FF13271BBB0000000000000C
:100130004A95A1F104FF13271BBB0000000000003B
:100140004A9561F105FF13271BBB0000000000006A
:100150004A9521F106FF13271BBB00000000000099
:100160004A95E1F007FF13271BBB000009914A9550
:10017000A9F000FF13271BBB0000000000004A95F8
:1001800069F001FF13271BBB0000000000004A9527
:1001900029F002FF13271BBB0000C2CF1C7F1BBB33
:1001A0000CEF0395F1F70AB30C7F12601BBB3DEF18
:1001B0003395F1F70ABB909A08950F9318D06FD03A
:1001C0002ED0A3D006D000911001009353010F91BF
:1001D00008950F931F930091100118E801270093D1
:1001E00010011F910F91089535D08FD008950F936E
:1001F0001F93AF93BF93CF93DF93AEE1B1E0C5E41C
:10020000D1E000270930039518F419911D93FACF16
:10021000DF91CF91BF91AF911F910F9108950F93EF
:100220001F93AF93BF93A5E4B1E00C9110E1100FC1
:100230001D93069506950695A00F08F4B3950091B9
:1002400029010D9300912A010C93BF91AF911F9149
:100250000F9108950F931F932F933F934F935F93A5
:1002600000912701109128012FE145E050912601CE
:10027000302F317032953227220F34FD2427169506
:1002800007955A95A9F70FE120272F71209329018F
:100290005F914F913F912F911F910F910895FF9280
:1002A0000F931F932F933F934F935F936F93AF934E
:1002B000BF932FEF1FEF40EA31E0B1E0AEE15D9177
:1002C000503089F00D9168E0FF240695FF1CF1265F
:1002D00026951795F0FC2427F0FC13275A9519F062
:1002E0006A9591F7EFCFB1E0A9E20FEF2027102731
:1002F0001D932C93BF91AF916F915F914F913F915F
:100300002F911F910F91FF9008950F931F932F939B
:100310003F934F935F936F93AF93BF93CF93DF93CD
:10032000A5E4B1E0C2E5D1E000E8099309912D917F
:1003300049E0552766270D9138E04A9511F448E0C9
:100340001993169500FD106800FD539500FF552781
:10035000563038F0552763954A9511F448E01993C3
:1003600016952A9521F006953A9539F7E4CF4A95E6
:1003700011F01695FCCF188320E1620F2091450102
:10038000260F20935101DF91CF91BF91AF916F91D3
:100390005F914F913F912F911F910F9108950F936E
:1003A00000E002BF0DE106BF01E003BF02E009BFAC
:1003B000909800E10ABF0F9118950F930FB70F9314
:1003C0001F9319B3137000E003BF2F93CF9309B3AA
:1003D00003702227102710FF2160DF9319B31370D9
:1003E0000000012700FF2260D1E0CCE209B30370D6
:1003F000E1F1102710FF2460C933B0F519B3137071
:10040000A1F1012700FF28600000000009B303707C
:1004100061F1102710FF20610000000019B3137074
:1004200021F1012700FF20620000000009B30370E2
:10043000E1F0102710FF20640000000019B31370D2
:10044000A1F0012700FF2068299309B3037069F028
:100450001027222710FF2160000019B3137029F024
:10046000012700FF2260C2CF68C1299300911801C3
:100470000130C0F400912C010936A1F40F933F9391
:100480004F9301E000931A0101E100931B012FDE5D
:1004900001E000931A0101E500931B014F913F9188
:1004A0000F9103C001E00093140101E000931401D7
:1004B000DF91CF912F911F910F910FBF0F91909AC4
:1004C00018950F931F932F9301E0009318010027B5
:1004D00000931401009114010130E0F30027009310
:1004E000180110912C01133C29F01B3419F0193616
:1004F000F9F0EACF1F9302ED0093530100E100935E
:100500005101F5DD1F9100912E011093100105306E
:1005100039F0063039F0093019F00A3009F0D4CF3B
:100520000BD0D2CF023009F4CF9A45D0CDCFCCCF6B
:100530002F911F910F9108950F931F932F933F9326
:10054000CF93DF9310912D0120912C0130912E013A
:10055000C1E5D1E000E2099300E809930BE40993B7
:1005600000270993099301E00093180100270093E5
:100570001401009114010130E0F3002700931801E9
:1005800000912C01093671F0023D71F00B3459F7DE
:100590001F9302ED0093530100E100935101A7DD89
:1005A0001F91D6CFA4DDDFCFDF91CF913F912F9167
:1005B0001F910F9108950F932F933F93CF93DF9344
:1005C000EF93FF930091300130913101209133017D
:1005D000D0912D01C0912F01D13A51F4C13021F4B5
:1005E00023E0EAE9F3E01AC022E0ECE9F3E016C008
:1005F000013031F4E1E4F3E0223108F022E10EC0F1
:10060000023019F4EAE4F3E009C0023239F431307F
:1006100019F0E8E6F3E002C0E3E8F3E0EE0FFF1FB5
:10062000213038F1D1E0C6E43327383038F42130B6
:1006300028F02A95339505910993F7CF032F000FE2
:10064000000F000F00934501B8DD01E00093180191
:10065000002700931401009114010130E0F30027FA
:100660000093180100912C01023D11F040DDEDCF07
:10067000D7CFFF91EF91DF91CF913F912F910F91C4
:10068000089512011001000000082C1A2421100105
:100690000000000109023B00020100A03109040032
:1006A00000010301010009211001000122360007A9
:1006B00005810308000A0904010001030000000984
:1006C00021010100012232000705820308000A000F
:1006D00005010906A10105081901290315002501D5
:1006E00075019503910295059101050719E029E728
:1006F000950881027508950181011900299126FF4D
:100700000095068100C0050C09011A01850102153A
:100710000026C302950175108100C005010980A162
:1007200001850219812983250175019503810295AF
:10073000058101C001000000020000E00DBF01E0E2
:100740000EBF909A00E10BBF04E00ABB0BBB01E0B7
:1007500000931A0101E500931B0100E100931101D0
:1007600000E8009312010AE5009313010BE40093E3
:100770001001D79A7894C5E4D1E0A3DEF894C5E4DB
:10078000D1E000E4099300270993099304E0099359
:10079000002709930993099309930993099378947E
:1007A0000CDD01E000931801002700931401009173
:1007B00014010130E0F300270093180143954038FD
:1007C00010F1442701E00093180100270093140161
:1007D000009114010130E0F300270093180187DC39
:1007E000002700934801E9DC01E00093180100278D
:1007F00000931401009114010130E0F300270093ED
:10080000180175DC17C000912C01093699F40F937B
:100810003F934F9301E000931A0101E100931B0104
:1008200066DC01E000931A0101E500931B014F9182
:100830003F910F914395000000000000B2CFF89463
:10084000CF9A2FDCFCCF0000000000000000000069
:100850000000000000000000000000000000000098
:100860000000000000000000000000000000000088
:08087000000000000000000080
:00000001FF
