:020000020000FC
:1000000010C218950EC01895189518951895189542
:10001000189515C018951895189518951895189550
:1000200018950F9300E002BF0DE106BF01E003BF8A
:1000300002E009BF909800E10ABF0F9118950F9355
:100040000FB70F931F9319B3137000E003BF2F93E3
:10005000CF9309B303702227102710FF2160DF938D
:1000600019B313700000012700FF2260D1E0CCE239
:1000700009B30370D9F1102710FF2460C933C0F50C
:1000800019B3137099F1012700FF286000000000E8
:1000900009B3037059F1102710FF20610000000020
:1000A00019B3137019F1012700FF2062000000004E
:1000B00009B30370D9F0102710FF2064000000007E
:1000C00019B3137099F0012700FF2068299309B331
:1000D000037061F01027222710FF2160000019B380
:1000E000137021F0012700FF2260C2CFCF9A29931D
:1000F00001E000930100DF91CF912F911F910F91AB
:100100000FBF0F9118950F931F932F933F93072DB8
:100110001BB31B7F222723952F3060F41BBB1B7F53
:1001200000FD14600695006835E0339500003D3F02
:10013000E0F3F1CF3F912F911F910F9108957F929E
:100140000F93CF93DF93CCE3D1E0002700310395E9
:1001500018F47A90D8DFFACFDF91CF910F917F908A
:1001600008957F920F93CF93DF93C2E6D1E00027EB
:100170000031039518F47A90C6DFFACFDF91CF9162
:100180000F917F9008950F931F932F9300271127AE
:1001900020EC0395F1F71395E1F72395D1F72F9113
:1001A0001F910F91089507D05ED01DD092D0089571
:1001B00035D08FD008950F931F93AF93BF93CF93F4
:1001C000DF93AEE1B1E0C5E4D1E00027093003954B
:1001D00018F419911D93FACFDF91CF91BF91AF9190
:1001E0001F910F9108950F931F93AF93BF93A5E4B1
:1001F000B1E00C9110E1100F1D9306950695069540
:10020000A00F08F4B395009129010D9300912A01E4
:100210000C93BF91AF911F910F9108950F931F936E
:100220002F933F934F935F930091270110912801E3
:100230002FE145E050912601302F31703295322761
:10024000220F34FD2427169507955A95A9F70FE13B
:1002500020272F71209329015F914F913F912F917A
:100260001F910F910895FF920F931F932F933F9328
:100270004F935F936F93AF93BF932FEF1FEF40EABE
:1002800031E0B1E0AEE15D91503089F00D9168E070
:10029000FF240695FF1CF12626951795F0FC2427D0
:1002A000F0FC13275A9519F06A9591F7EFCFB1E05A
:1002B000A9E20FEF202710271D932C93BF91AF9138
:1002C0006F915F914F913F912F911F910F91FF90EF
:1002D00008950F932F933F934F935F936F93AF9333
:1002E000BF93CF93DF93A5E4B1E0C2E5D1E000E88E
:1002F000099309912D9149E05527662720E50D9135
:1003000038E04A9511F448E01993169500FD1068FD
:1003100000FD539500FF5527563038F0552763955B
:100320004A9511F448E0199316952A9521F00695FF
:100330003A9539F7E4CF4A9511F01695FCCF18831A
:1003400020E1620F20914501260F20935101DF919A
:10035000CF91BF91AF916F915F914F913F912F914D
:100360000F9108950F9300912C010F7000931901C4
:10037000003120F00E70083028F006C00E700830F2
:1003800010F003C003C002C001C000C00F91089567
:10039000C2E5D1E04091510143951BB31E7F12602D
:1003A0001BBB0AB303600ABB33E01124222409916A
:1003B00002C01BBB099113944A95E9F000FF132773
:1003C0001BBB0000000000004A95A9F001FF1327A5
:1003D0001BBB0000000000004A9569F002FF1327D4
:1003E0001BBB03FF13274A9529F010FEE2CF0295AD
:1003F0001BBBE1CF00001C7F1BBB0CEF0395F1F78B
:100400000AB30C7F12601BBB0ABB08950F930091C7
:1004100001000130E0F3CF9A0027009301000F9113
:10042000089500E00DBF01E00EBF909A00E10BBF00
:1004300004E00ABB0BBBD79A789409E6702E63DE02
:10044000C6E4D1E0E3DF000000000000FCCFCF9A5B
:10045000FECF0000000000000000000000000000CF
:10046000000000000000000000000000000000008C
:10047000000000000000000000000000000000007C
:040480000000000078
:00000001FF
